:020000040800F2
:100000005807002089010008B31600083D120008B7
:10001000B11600088F0200086B1B000800000000EA
:10002000000000000000000000000000931800081D
:1000300091020008000000009118000895180008BF
:10004000A3010008A3010008A3010008A301000800
:10005000A3010008A3010008A3010008A3010008F0
:10006000A3010008A3010008A3010008A3010008E0
:10007000A3010008A3010008A3010008A3010008D0
:10008000A3010008A3010008A3010008A3010008C0
:10009000A3010008A3010008A3010008A3010008B0
:1000A000A3010008A3010008A3010008A3010008A0
:1000B000A3010008A3010008A3010008A301000890
:1000C000A3010008A3010008A3010008A301000880
:1000D000A3010008A3010008A3010008A301000870
:1000E000A3010008A3010008A301000800F002F822
:1000F00000F03AF80AA090E8000C82448344AAF188
:100100000107DA4501D100F02FF8AFF2090EBAE885
:100110000F0013F0010F18BFFB1A43F0010318473B
:10012000CC280000EC280000103A24BF78C878C121
:10013000FAD8520724BF30C830C144BF04680C60ED
:10014000704700000023002400250026103A28BF35
:1001500078C1FBD8520728BF30C148BF0B60704739
:100160001FB51FBD10B510BD00F058F81146FFF7C0
:10017000F7FF01F06BFE00F076F803B4FFF7F2FF33
:1001800003BC00F07DF8000009488047094800479B
:10019000FEE7FEE7FEE7FEE7FEE7FEE7FEE7FEE737
:1001A000FEE7FEE704480549054A064B7047000094
:1001B000F7180008ED00000858010020580700203B
:1001C00058030020580300204FF0000200B51346EA
:1001D00094469646203922BFA0E80C50A0E80C5067
:1001E000B1F12001BFF4F7AF090728BFA0E80C5018
:1001F00048BF0CC05DF804EB890028BF40F8042B11
:1002000008BF704748BF20F8022B11F0804F18BF7D
:1002100000F8012B7047704770477047754600F033
:100220002BF8AE4605006946534620F00700854688
:1002300018B020B5FFF7B6FFBDE820404FF000062C
:100240004FF000074FF000084FF0000B21F00701BE
:10025000AC46ACE8C009ACE8C009ACE8C009ACE801
:10026000C0098D46704710B50446AFF300802046A4
:10027000BDE81040FFF781BF00487047F80000203C
:1002800001491820ABBEFEE7260002007047FEE7DA
:10029000704772B6FEE7000070B5044600F008F93A
:1002A0000546601C02D004480078044400F000F9C0
:1002B000401BA042FAD370BD040000202DE9F84F86
:1002C000DFF8B891002409F1040A0AF1040B23466F
:1002D0000F270BF1040EC9E00125A5402A40AA42D0
:1002E0007DD1674ED1F804C0ACEB0608B44532D0DE
:1002F00014DCBCF1030F3AD009DCBCF1000F2AD0AA
:10030000BCF1010F1CD0BCF1020F31D11DE0BCF1DA
:10031000110F17D0BCF1120F2AD119E0B8F5881FC0
:1003200019D006DCB8F5803F15D0B8F5801F1FD175
:1003300011E0B8F5001F0ED0B8F5041F18D10AE07F
:10034000CB6815E0CB681B1D12E0CB6808330FE0CB
:10035000CB680C330CE08B682BB1012B4FF00803FA
:1003600003D0456104E0042302E0056100E00023BE
:10037000FF2A01D8064601E000F104064FEA840591
:1003800001D9A5F12005D6F8008007FA05FC28EA76
:100390000C0803FA05F548EA0508C6F800804D6820
:1003A000ED0062D5374DAE6946F00106AE61AD692C
:1003B00024F0030605F001050095334D06EB050C0E
:1003C000DCF80850A607360F07FA06F825EA0805F4
:1003D000DFF8B880404503D14FF0000817E044E053
:1003E000DFF8AC80404502D14FF001080FE0DFF8A4
:1003F000A480404502D14FF0020808E0DFF8988061
:10040000404502D14FF0030801E04FF0040808FA1C
:1004100006F848EA0508CCF808804D68D9F800606D
:10042000ED034D4601D5164300E096432E604D681E
:10043000DAF80060AD03554601D5164300E0964357
:100440002E604D68DBF80060ED025D4601D5164375
:1004500000E096432E604D68DEF80060AD02754600
:1004600001D5164300E096432E60641C0D682A46B1
:10047000E5407FF431AFBDE8F88F00000004014093
:10048000000011100010024000000140000801406F
:10049000000C014000100140001401408068084039
:1004A00000D0012070470AB1016170470904FBE7E1
:1004B00001488068704700000400002070B5040007
:1004C00025D094F83D00002520B984F83C50204602
:1004D00000F050F9242084F83D002068016821F0E4
:1004E000010101602068016841F400410160206859
:1004F000016821F40041016000F08AFA4D4A616808
:10050000914201D84C4900E04C49884201D2012077
:1005100070BD4B492368B0FBF1F15E6826F03F06E1
:100520000E435E606368934206D94FF49673594355
:100530004FF47A73B1FBF3F12368491C1E6A26F06D
:100540003F06314319626168914210D84900401E4C
:10055000B0FBF1F2521CC2F30B02042A01D20420B8
:1005600022E0B0FBF1F0401CC0F30B001CE0A268DD
:10057000F2B301EBC10303EB0116431EB3FBF6F329
:100580005B1C43F480431B0549D092B301EBC102CD
:1005900002EB0111401EB0FBF1F0401CC0F30B0058
:1005A00040F4804040F400402168CA694CF6FF7373
:1005B0009A431043C861D4E90710014320680268D8
:1005C00022F0C00211430160D4E903010143206815
:1005D000826848F2FF339A4311438160D4E90501F0
:1005E00008432168CA6822F0FF021043C86001E096
:1005F0000EE016E02068016841F001010160256409
:10060000202084F83D00256384F83E50002070BD12
:1006100001EB4106431EB3FBF6F35B1CB3E701207D
:10062000C2E701EB4101401EB0FBF1F0401CC0F3FA
:100630000B00B7E7A086010080841E0000093D0082
:1006400040420F002DE9FF4F83B09A46DDE9119734
:1006500093460446DDF84080FFF72AFF054694F8EC
:100660003D0020287FD119230122404920460095D2
:1006700000F076FE002876D194F83C00012872D074
:10068000012084F83C0020680168C90703D1016893
:1006900041F0010101602068016821F400610160FE
:1006A000212084F83D00402084F83E000026266486
:1006B000C4F82480A4F82A90608D20852C48E0623C
:1006C000CDE9007553465A462046049900F0CEFD08
:1006D00070B930E02A463946204600F0C0FE58B1D5
:1006E000206C042804D12068016841F40071016085
:1006F000012007B0BDE8F08F606A216800780861CA
:10070000606A401C6062218D491E89B22185628D1C
:10071000521E628522685369DB435B070BD469B1C3
:1007200000781061606A401C6062208D401E208548
:10073000608D401E6085208D0028CBD12A46394629
:10074000204600F0E7FD0028CAD154F83D0B0168AF
:1007500041F400710160202004F81E09E6776677F5
:100760000020C6E7FFE70220C3E7000002001000F8
:100770000000FFFF10B586B00021009101910291A9
:10078000039100680F4988421AD10F4CA06940F0CC
:100790000800A061A069694600F008000490C0202C
:1007A000009012200190032003900848FFF786FD77
:1007B000E06940F40010E061E06900F4001004908A
:1007C00006B010BD0054004000100240000C014073
:1007D000024881680278114481607047040000205B
:1007E000074810B5016841F010010160032000F0D6
:1007F00067F80F2000F006F800F024F8002010BD84
:100800000020024070B50D4D04464FF47A712878EF
:10081000B1FBF0F00A490968B1FBF0F000F0CEFA44
:1008200048B9102C07D200222146501E00F028F8AB
:1008300000206C6070BD012070BD0000040000202D
:10084000100000200C4808B5816941F00101816168
:10085000816901F001010091C16941F08051C161DC
:10086000C06900F0805000900448416821F0E061C8
:1008700041F00071416008BD0010024000000140DD
:10088000F0B40E4B1B680C46C3F30223C3F10705FB
:10089000042D00D90425191D072901D2002300E0E9
:1008A000DB1E012606FA05F1491E214099409E40B3
:1008B000761E16403143F0BC01F058B90CED00E053
:1008C000064900F0070208684FF6FF03184040EAA7
:1008D0000220034A10430860704700000CED00E05E
:1008E0000000FA052DE9F0470F46050061D0434EA0
:1008F000306800F00700B84209D2306820F00700E5
:1009000038433060306800F00700B84251D12868A1
:100910003B4C810712D5400703D5606840F4E06086
:1009200060602878000703D5606840F4605060601C
:100930006068A96820F0F000084360602878C0076C
:1009400028D06868012810D02168022810D08907B3
:1009500000292EDA616821F0030101436160FFF78D
:10096000A7FD804641F288390DE021688903EFE751
:100970008901EDE7FFF79CFDA0EB0801494502D98D
:100980000320BDE8F0876068696800F00C00B0EBF8
:10099000810FEFD1306800F00700B8420BD9306802
:1009A00020F0070038433060306800F00700B8429C
:1009B00001D00120E5E72878400705D56068E9689F
:1009C00020F4E060084360602878000706D560687E
:1009D000296920F4605040EAC100606000F028F806
:1009E0006168084AC1F30311515CC84006490860B8
:1009F00006480068FFF706FF0020C2E7002002401B
:100A000000100240D4290008100000200800002037
:100A10000448054900684968044AC1F30221515C51
:100A2000C84070471000002000100240E429000870
:100A300012A185B00FC98DE80F0014A0144A0068F8
:100A400004905168134801F00C03042B10D0082BBC
:100A50000ED1C1F38343C9031DF803000AD55168C1
:100A600004AAC1F34041515C0A4A5043B0FBF1F083
:100A700005B0704708494843FAE70000020304053F
:100A8000060708090A0B0C0D0E0F101001020000DA
:100A90000010024000127A0000093D002DE9F84FD5
:100AA000040070D02078C04DC00749D06868C0F3FA
:100AB0008100012807D06868C0F38100022809D1AD
:100AC0006868C00306D52868800339D560680028A7
:100AD000E7D035E06068B0F5803F0BD010B1B0F5DD
:100AE000A02F11D0286820F480302860286820F4D6
:100AF000802002E0286840F480302860606890B16F
:100B0000FFF7D6FC06460AE0286840F480202860FB
:100B1000F0E700BFFFF7CCFC801B642873D828687F
:100B20008003F7D50CE0FFF7C3FC064605E000BFE5
:100B3000FFF7BEFC801B6428F0D828688003F7D438
:100B400020789A4E80074FF001094FF0000839D500
:100B5000686810F00C0F07D06868C0F381000228A5
:100B600009D16868C00306D42868800714D52069B5
:100B7000012808D110E02069B0B1C6F80090FFF755
:100B800097FC074605E00AE1FFF792FCC01B02282C
:100B9000C4D828688007F7D52868616920F0F80074
:100BA00040EAC10028600DE0C6F80080FFF780FC35
:100BB000074604E0FFF77CFCC01B022823D8286806
:100BC0008007F7D4207800072CD57948A169D9B1DE
:100BD000C0F80090FFF76CFC074604E0FFF768FCE4
:100BE000C01B02280FD8686A8007F7D571484FF4F8
:100BF000FA510068B0FBF1F0009000BF0098411E70
:100C00000091FAD20EE080E0C0F80080FFF750FCBF
:100C1000074604E0FFF74CFCC01B022875D8686A41
:100C20008007F7D42078400760D5E8690027C00026
:100C300008D4E86940F08050E861E869012700F0D5
:100C4000805000905C480168C90513D40168834650
:100C500041F480710160FFF72BFC824606E000BF83
:100C6000FFF726FCA0EB0A0064284ED8DBF8000052
:100C7000C005F5D5E06801280AD008B1052813D0D1
:100C8000286A20F001002862286A20F0040002E0AF
:100C9000286A40F001002862E06841F2883B98B180
:100CA000FFF706FC82460BE0286A40F00400286249
:100CB000EEE700BFFFF7FCFBA0EB0A0159455AD84D
:100CC000286A8007F6D50CE0FFF7F2FB824605E0C4
:100CD000FFF7EEFBA0EB0A0159454CD8286A8007C4
:100CE000F6D41FB1E86920F08050E861E06988B36C
:100CF0006968C1F38101022944D00228C6F86080E6
:100D000004D0FFF7D5FB044638E034E0FFF7D0FB12
:100D1000074604E0FFF7CCFBC01B02282BD828684D
:100D20008001F7D4206AB0F5803F05D16868A168DA
:100D300020F4003008436860D4E90801084369687A
:100D400021F4741108436860C6F86090FFF7B0FBA7
:100D5000044606E025E000BFFFF7AAFB001B0228BF
:100D600009D828688001F7D51BE000BFFFF7A0FB7A
:100D7000001B022802D90320BDE8F88F28688001F3
:100D8000F4D40EE00128F7D06868226A00F48031BC
:100D9000914204D1616A00F47010884201D00120B0
:100DA000EAE70020E8E700000010024000004242AD
:100DB00080044242100000200070004010B5401E28
:100DC000B0F1807F01D3012010BD4FF0E0246061BD
:100DD0000F21601700F0CAFE0020A06107202061EB
:100DE000002010BD70B590F83C20012A26D00124C7
:100DF00080F83C40022280F83D2003685A689D68D4
:100E000022F070060A6832435A600D4B02689A421B
:100E100008D0B2F1804F05D00A4B9A4202D00A4B5B
:100E20009A4204D1496825F080031943916080F803
:100E30003D40002180F83C10084670BD022070BD86
:100E4000002C0140000400400008004010B50400E0
:100E500003D094F83D0010B107E0012010BD002040
:100E600084F83C00204600F01FF8022084F83D0082
:100E7000211D206800F05EFD012084F8460084F802
:100E80003E0084F83F0084F8400084F8410084F874
:100E9000420084F8430084F8440084F8450084F854
:100EA0003D00002010BD000008B501680B48B1F1FD
:100EB000804F0BD00A4A914207D1C16941F0040129
:100EC000C161C06900F00400009008BDC16941F033
:100ED0000101C161C06900F00100F5E700100240A6
:100EE0000008004090F83D10012901D00120704712
:100EF000022180F83D1000680B49884208D0B0F10B
:100F0000804F05D00949884202D00949884204D15E
:100F1000816801F00701062903D0016841F0010151
:100F20000160002070470000002C014000040040D8
:100F30000008004001680A6A41F211131A4207D101
:100F40000A6A9B101A4203D10A6822F001020A6061
:100F5000012180F83D100020704770B5044690F8DC
:100F60003C00012817D0012584F83C50022084F869
:100F70003D002068826822F0770222F47F4282607E
:100F80000868502830D00DDC20284DD005DC98B3FF
:100F900010283BD148E0022070BD302844D04028C2
:100FA00034D139E0602828D0702806D0B0F5805FB1
:100FB0002CD0B0F5005F29D10AE0CB68D1E901213E
:100FC000206800F0FAFC2068816841F0770109E0B0
:100FD000CB68D1E90121206800F0EFFC206881682E
:100FE00041F48041816011E0CA684968206800F0DE
:100FF00099FD5021206807E016E0CA68496820681A
:1010000000F0A1FD6021206800F0E1FC84F83D5073
:10101000002084F83C0070BDCA684968206800F070
:1010200081FD40212068EFE7226801461046EBE78A
:1010300000B585B0002100910191029103910068F3
:101040000B49884212D10B48816941F00801816146
:101050008069694600F0080004904FF40070009029
:101060000220019003900448FFF728F905B000BD65
:101070000008004000100240000C014070B504461A
:1010800090F83C000D4601280AD0012084F83C006D
:1010900042B1042A18D0082A2AD00C2A4DD139E0AE
:1010A000022070BD206800F09BFC2068816941F03F
:1010B000080181612068816921F004018161206853
:1010C00081692A69114311E0206800F0B1FC2068B1
:1010D000816941F4006181612068816921F4806146
:1010E0008161206881692A6941EA0221816124E0E5
:1010F000206800F0C9FC2068C16941F00801C161A5
:101100002068C16921F00401C1612068C1692A69B0
:10111000114311E0206800F0E3FC2068C16941F44C
:101120000061C1612068C16921F48061C1612068EA
:10113000C1692A6941EA0221C161002084F83C00AA
:1011400070BD10B5040003D094F83D0010B107E065
:10115000012010BD002084F83C00204600F01EF85D
:10116000022084F83D00211D206800F0E3FB0120EF
:1011700084F8460084F83E0084F83F0084F840007C
:1011800084F8410084F8420084F8430084F8440065
:1011900084F8450084F83D00002010BD7047000031
:1011A00010B50446022249B104290ED0082913D0F3
:1011B00094F84100012816D0012010BD94F83E009B
:1011C0000128F9D184F83E200FE094F83F0001286F
:1011D000F2D184F83F2008E094F840000128EBD1D8
:1011E00084F8402001E084F841200122206800F0CA
:1011F000D7FB0F492068884203D1426C42F4004279
:1012000042642068884208D0B0F1804F05D0094977
:10121000884202D00849884204D1816801F0070160
:10122000062903D0016841F001010160002010BDD2
:10123000002C01400004004000080040FEE7016867
:101240004A69D24352050FD46FF480624A6100218B
:1012500040F8301F202242738173026942F0040279
:101260000261017301207047002070472DE9F843A7
:10127000044600680D46DDE9089701689846164661
:1012800041F4807101604B4600224FF0011120466D
:10129000009700F065F848B120680068C00502D5E5
:1012A0004FF4007020640320BDE8F883216805F046
:1012B000FE0008613B464A461549204600F084F886
:1012C00088B920684169806900903A4649462046BD
:1012D00000F0C5F848B1206C042804D120680168EA
:1012E00041F4007101600120DEE7F5B2B8F1010FB1
:1012F00009D02168300A08613A464946204600F084
:10130000AEF80028E7D1206805610020CCE7000096
:101310000200010070B516460D4604460DE0204659
:10132000FFF78DFF08B1012070BD681C05D0FFF7E5
:10133000BFF8801BA84207D835B120684069C04378
:101340004007ECD4002070BD002044F8300F20216D
:101350006173A073216941F0200121612073E2E7EC
:101360002DE9F0471E4690460D460446C1F3074757
:10137000DDF8209008E0701C06D0FFF799F8A0EB8C
:101380000900B0420FD876B12068012F18D08069CB
:1013900025EA00000004000C14D000214145EAD0E9
:1013A0000020BDE8F087002044F8300F2021617351
:1013B000A073216941F02001216120730120F0E731
:1013C0004069E5E70121E9E72DE9F0479A469146B2
:1013D0000E46044600254FF02008C1F3074725E0DC
:1013E00020684069C043400514D42068016841F476
:1013F0000071016021686FF480604861256384F8A2
:101400003D8084F83E50206C40F00400206484F855
:101410003C501FE0B9F1FF3F08D0FFF749F8A0EBBF
:101420000A0149450CD8B9F1000F09D02068012FF5
:1014300013D0806926EA00000004000C0BD0CFE72F
:1014400044F8305F84F80D80A573206940F02000D7
:10145000206125730120BDE8F0874069EAE770B597
:1014600016460D4604460DE02046FFF7E8FE08B19B
:10147000012070BD681C05D0FFF71AF8801BA84238
:1014800007D835B120684069C0430006ECD400207D
:1014900070BD002044F8300F20216173A0732169D2
:1014A00041F0200121612073E2E700002DE9F043C3
:1014B00085B000242A480094019402940394816921
:1014C00041F020018161816901F02001049181696D
:1014D00041F008018161816901F00801049181698D
:1014E00041F0040181618069DFF8788000F0040038
:1014F00040F207450490002229464046FEF7D3FFFC
:10150000DFF86490EF1F002239464846FEF7CBFF14
:101510000095022601250396CDE90154694640460F
:10152000FEF7CCFE4EF21800CDE9000469464046B5
:101530000294FEF7C3FE4FF43060CDE90004694623
:1015400048460294FEF7BAFE00970396CDE901548F
:1015500069464846FEF7B2FE05B0BDE8F0830000DC
:1015600000100240000C0140000801400D4810B579
:101570000B4901600C49416000214FF480428160B9
:10158000C0E9031241618161C1610162FEF796FF0A
:10159000002803D0BDE81040FEF77BBE10BD000060
:1015A0000054004014000020A086010010B586B051
:1015B00000241748009401940294039404944FF07B
:1015C0008041059401604721C0E901144FF6FF7185
:1015D000C0E9031480218161FFF738FC08B1FEF7F0
:1015E00058FE4FF48050009069460948FFF7B5FC5B
:1015F00008B1FEF74EFE049404A905480594FFF7D0
:10160000F1FB002801D0FEF744FE06B010BD00003B
:101610006800002010B58EB0002407940894099447
:101620000A940B941C2168460C94FEF7CDFD1F48CC
:101630001D49016041F61F41C0E90114C721C0E9FD
:10164000031480218161FFF701FC08B1FEF721FE40
:101650004FF48050079007A91448FFF77EFC08B1AB
:10166000FEF717FE1148FFF76CFD08B1FEF711FEFB
:101670000B940BA90D480C94FFF7B4FB08B1FEF7CF
:1016800008FE6020CDE9000402940C226946074858
:101690000494FFF7F3FC08B1FEF7FBFD0348FFF7E6
:1016A000C7FC0EB010BD000000080040B0000020D4
:1016B000FEE7FEE710B5AE2000F0C6F8002000F00F
:1016C000C3F8102000F0C0F8402000F0BDF8B020B2
:1016D00000F0BAF8812000F0B7F8FF2000F0B4F86D
:1016E000A12000F0B1F8A62000F0AEF8A82000F08C
:1016F000ABF83F2000F0A8F8C82000F0A5F8D320F0
:1017000000F0A2F8002000F09FF8D52000F09CF82F
:10171000802000F099F8D82000F096F8052000F01D
:1017200093F8D92000F090F8F12000F08DF8DA203D
:1017300000F08AF8122000F087F8DB2000F084F82F
:10174000302000F081F88D2000F07EF8142000F0A9
:101750007BF8BDE81040AF2000F076B870B52020CF
:1017600000F072F8022000F06FF8002404F1B000DD
:10177000C0B200F069F8002000F066F8102000F018
:1017800063F80025002000F071F86D1CEDB2802D8B
:10179000F8D3641CE4B2082CE8D370BD2DE9F047FF
:1017A0000C468046AE2101EB48001746C0B200F05F
:1017B0004BF804F00F00824600F046F8102000EBD2
:1017C0001410064600F040F815483D0100EB0714E0
:1017D000DFF85090A5F5007505E000BF19F8050089
:1017E00000F044F86D1CAC42F8D8AF2101EB480082
:1017F000C0B200F029F8504600F026F8304600F05C
:1018000023F807484D46083000EB071603E0285D33
:1018100000F02CF8641CA642F9D8BDE8F08700005F
:1018200008FEFFFFE423000870B514460D46064687
:1018300006E029463046FFF7B1FF0835EDB2641CDB
:101840002278002AF5D170BD01B584B00121FF22B4
:1018500004A88DE807000B46002278210248FEF715
:10186000F1FE05B000BD00001400002001B584B0F9
:101870000121FF2204A88DE807000B4640227821B1
:101880000248FEF7DFFE05B000BD00001400002096
:1018900070477047FEF79CBF30B58FB0282168466F
:1018A000FEF792FC14210AA8FEF78EFC0121080421
:1018B000CDE900100024029402250491CDE90750DF
:1018C0004FF4E01009906846FFF7E8F808B172B6E7
:1018D000FEE70F20CDE90A054FF48060CDE90C400A
:1018E00002210AA80E94FEF7FDFF002801D072B66F
:1018F000FEE70FB030BD70470D490A68136843F02A
:10190000010313600B6800225A620968401E4A6A8C
:101910008242FCD3086A41F21112104207D1086AD0
:101920009210104203D1086820F00100086070474F
:1019300068000020F0B50268164B174C174D4FF0A9
:101940008047984205D0B84203D0A04201D0A842B7
:1019500003D122F070064A683243984205D0B8425B
:1019600003D0A04201D0A84203D122F44074CA6837
:1019700022434C6922F08002224302608A68C262DC
:101980000A688262984201D10969016301214161BB
:10199000F0BD0000002C01400004004000080040A1
:1019A00010B501F01F030121046A99408C430462C1
:1019B000016A9A401143016210BD10B5846842EA81
:1019C000032224F47F440A432243826010BD8268CC
:1019D00022F070020A4342F0070181607047000064
:1019E00030B5026A22F001020262026A4368846929
:1019F00024F073050C682C4322F002058A682A4300
:101A00000A4DA8420BD122F00805CA6823F440739E
:101A10002A434D6922F004021D438B692B43436026
:101A2000846149684163026230BD0000002C0140BE
:101A300030B5026A22F010020262026A43688469C9
:101A40000D6824F4E64444EA05248D6822F020025F
:101A500042EA05120B4DA8420ED1CD6822F0800259
:101A600042EA05124D6923F4406343EA85038D6918
:101A700022F0400243EA8503436084614968816340
:101A8000026230BD002C014030B5026A22F480723F
:101A90000262036A4268C46923F4007324F0730588
:101AA0000C682C438D6843EA05230C4DA8420ED1E7
:101AB000CD6823F4006343EA05234D6922F44052C4
:101AC00042EA05128D6923F4806342EA05124260FE
:101AD000C4614968C163036230BD0000002C01404D
:101AE00030B5026A22F480520262046A4268C36915
:101AF0000D6823F4E64343EA05238D6824F400547B
:101B000044EA0534064DA84204D14D6922F48042CE
:101B100042EA85124260C36149680164046230BDD3
:101B2000002C014010B5036A046A24F00104046229
:101B3000846924F0F00444EA021423F00A020A4300
:101B40008461026210BD10B5036A23F010030362C2
:101B50008369046A23F4704343EA023224F0A00349
:101B600043EA01118261016210BDFEE70907090E17
:101B7000002804DB00F1E02080F80014704700F03A
:101B80000F0000F1E02080F8141D70472DE9F041AE
:101B90002F4D4FF4E177287830B100F029FA00207A
:101BA00028703846FEF778FB00F096F804460E469B
:101BB0000022284B00F0E0FB02D200F0EDF841E0FB
:101BC0000022254B2046314600F09CFA02D200F05C
:101BD000C9F837E000F01CFA00F002FA3C4638463B
:101BE000FEF75AFB00F078F806460F4600F000FAC0
:101BF0002046FEF751FB00F003FA02202870204631
:101C0000FEF74AFB00F068F804460D4602460B4614
:101C10003046394600F076FA06D200F0F1F8962008
:101C2000FEF73AFB00F0F4F932463B4620462946DF
:101C300000F068FA06D200F0C9F89620FEF72CFBF7
:101C400000F0E6F9BDE8F0413220FEF725BB0000C8
:101C500000000020008041400000244070B51D4D70
:101C60004FF4807421462846FEF718FC660030B910
:101C700031462846FEF712FC08B900F08DF82146DF
:101C80002846FEF70BFC012806D131462846FEF710
:101C900005FC08B900F0B4F821462846FEF7FEFB23
:101CA00038B931462846FEF7F9FB012801D100F08A
:101CB0008DF821462846FEF7F1FB012809D131466F
:101CC0002846FEF7EBFB012803D1BDE8704000F089
:101CD0009FB970BD0008014070B501221C4C9502EF
:101CE00029462046FEF7DFFB1420FFF705FE002201
:101CF00029462046FEF7D7FBE51429462046FEF785
:101D0000CDFB0028F9D01348FFF7ECF8114E002066
:101D10003168486229462046FEF7C0FB0128F9D009
:101D20000C48FFF707F93068406A4FF4AA7148433E
:101D300000EBD070401000F0CDF9074A074B00F0DF
:101D40001DFABDE870400022054B00F017BA0000F4
:101D500000080140680000208DEDB5A0F7C6B03E38
:101D60000000594010B50B4C002204212046FEF71C
:101D70009AFB012291022046FEF795FB00220121E9
:101D80002046FEF790FB20460122BDE810400221CC
:101D9000FEF789BB000C014010B50B4C0122042159
:101DA0002046FEF780FB002221152046FEF77BFB34
:101DB000012211462046FEF776FB20460022BDE8B0
:101DC00010400221FEF76FBB000C014010B50B4C18
:101DD000002204212046FEF766FB00222115204642
:101DE000FEF761FB012211462046FEF75CFB204610
:101DF0000022BDE810400221FEF755BB000C014057
:101E000010B50B4C012204212046FEF74CFB0022AA
:101E100021152046FEF747FB002201212046FEF750
:101E200042FB20460022BDE810400221FEF73BBBEA
:101E3000000C014010B50C210348FFF7B1F902492D
:101E400011200968086410BDB00000200024FEF7CE
:101E5000C7FCFFF721FDFFF729FBFFF7DBFBFFF7CF
:101E6000A5FBFFF783FBFFF7E5FF4FF47A70FEF762
:101E700013FA444900200870FFF71CFCFFF76EFCC2
:101E8000022141A20846FFF7CFFC4FF40046424D25
:101E9000B7104FF4804831462846FEF7FFFAB8B92C
:101EA00039462846FEF7FAFA012811D1414628465C
:101EB000FEF7F4FA01280BD1022C06D0FFF74EFCF6
:101EC000022136A20846FFF7AFFC022400F0BAF860
:101ED00031462846FEF7E2FA012816D1394628464F
:101EE000FEF7DCFA88B941462846FEF7D7FA012802
:101EF0000BD1032C06D0FFF731FC02212BA20846A0
:101F0000FFF792FC0324FFF7A9FE31462846FEF7AF
:101F1000C5FA012816D139462846FEF7BFFA01282E
:101F200010D141462846FEF7B9FA58B9012C06D01F
:101F3000FFF714FC022121A20846FFF775FC0124DB
:101F4000FFF724FE31462846FEF7A8FA0028A2D162
:101F500039462846FEF7A2FA00289CD14146284679
:101F6000FEF79CFA002896D1042C06D0FFF7F6FB6A
:101F7000022117A20846FFF757FC042400F048F896
:101F800089E70000000000202D2D2D2D2D526561C8
:101F900064792D2D2D2D0000000801402D2D2D2DB3
:101FA0002D58756E4A692D2D2D2D00002D2D2D2DAE
:101FB0002D47656E5375692D2D2D2D002D2D2D2D41
:101FC0002D42695A68616E672D2D2D2D000000008D
:101FD0002D2D2D2D53746F702D2D2D2D00000000F3
:101FE000024919200968086470470000B000002009
:101FF000024911200968086470470000B000002001
:10200000024905200968086470470000B0000020FC
:1020100010B50B4C002204212046FEF744FA0022A2
:1020200021152046FEF73FFA002201212046FEF747
:102030003AFA20460022BDE810400221FEF733BAEA
:10204000000C014010B51C4C08212046FEF726FA72
:1020500030B910212046FEF721FA08B9FFF79CFE9F
:1020600008212046FEF71AFA012806D11021204641
:10207000FEF714FA08B9FFF7A9FE08212046FEF77B
:102080000DFA38B910212046FEF708FA012801D1CF
:10209000FFF7B6FE08212046FEF700FA012809D115
:1020A00010212046FEF7FAF9012803D1BDE81040BF
:1020B000FFF7AEBF10BD0000000C0140491058BF33
:1020C000C1F140415B1058BFC3F140438B42EFF375
:1020D0000080704710F0004248BF4042B0FA80F3E1
:1020E00010FA03F10AD0C3F11D0303F580634FEA30
:1020F000415002EB035202EBD12170474FF0000038
:102100007047000051EA030C17D41CF5801F58BF1C
:10211000BCF5801F00F10680994218BF704708BFC8
:102120009042704707D711F5801F58BF13F5801FE5
:1021300019D499427047894270471CF5801F08D511
:10214000BCF5801FF7D58B4218BF704708BF82428D
:1021500070474FF4001C1CEB410F38BF1CEB430FC2
:1021600001D28B42704770B500F0B2F8922449005A
:102170004FF000514FF08053FFF7A0BFDFF848C188
:1021800070B51CEA111E1EBF1CEA13159EEA0C0F47
:1021900095EA0C0F00F06F8081EA030423EA4C13E8
:1021A0004EEAD47E21EA4C1141F4801143F48013AD
:1021B000AE44A1FB024CA0FB0365AEF17F7E361955
:1021C00055EB0C05A1FB034C4CF10003A0FB021CDA
:1021D00016EB0C06654153F10003094218BF46F0A7
:1021E000010613F4007F0BD14FEA03314FEA0530AB
:1021F000340341EA155140EA16506FF003020AE039
:102200004FEAC3214FEAC520F40241EA555140EAA2
:1022100056506FF0020202EB2E4201EB025585EAA6
:10222000CE710AD05FEA440C18BF24F0004450F18C
:10223000000041F1000120EAD47040F2FE7C6245CA
:1022400000D270BDA84214BF4FF080444FF040440C
:10225000002E08BF0024BEF1806FA8BFA1F1C041CD
:10226000BDE8704080F282804FF0000001F1C04173
:1022700001F0004170479EEA0C0F0CEA131518BFDD
:1022800095EA0C0F06D04FF0000081EA030E0EF025
:10229000004170BD00F01CF88900013E00F007B855
:1022A00000F009B84FEA430C5FEA5C5C08D081EAB1
:1022B000030100F05BB84FEA410C5FEA5C5CF6D1C9
:1022C0004FF00000014970470000FF070000F87F51
:1022D0000EF1020E2EF0030E5EF8046B364205D4AA
:1022E000012A43EB030515F5001F12D8012841EB25
:1022F000010C1CF5001F0CD80ED14FEAD17C15F54E
:10230000001F0CEB4C0C0CF1020C08BF4CEBD37C07
:1023100004E04FF0080C01E04FEAD37C0CEB4C05D5
:1023200026FA05F606F00706B6F1040C06D20EEB07
:10233000860CBDE870404CF0010C6047DFE80CF003
:10234000090B02024FF000414FF00000A1F50021FF
:1023500070BD19461046012851EB010418BFD4F591
:10236000001484BF002001F0004170BD0808A0F5F2
:1023700000114FEA3101704753EA010C17D41CF5E4
:10238000801F58BFBCF5801F00F106808B4218BF2C
:10239000704708BF8242704707D713F5801F58BFA8
:1023A00011F5801F19D48B4270479B4270471CF572
:1023B000801F08D5BCF5801FF7D5994218BF70471C
:1023C00008BF904270474FF4001C1CEB430F38BF0E
:1023D0001CEB410F01D2994270470FB40CBC03BCF7
:1023E000FFF7C1BE00000000000000000000000078
:1023F00000000000000000F80000000000000033B2
:102400003000000000100C06100C06000000000058
:102410000000000040C07840C0784000043F040441
:102420003F040400007088FC08300000001820FF02
:10243000211E0000F008F000E018000000211C033D
:102440001E211E0000F00888700000001E212324B9
:102450001927211010160E000000000000000000D7
:1024600000000000000000E0180402000000000767
:102470001820400000020418E0000000004020186E
:1024800007000000404080F0804040000202010F41
:1024900001020200000000F0000000000101011F25
:1024A00001010100000000000000000080B0700089
:1024B0000000000000000000000000000001010119
:1024C00001010101000000000000000000303000A8
:1024D0000000000000000000806018040060180682
:1024E0000100000000E010080810E000000F1020BC
:1024F00020100F00001010F8000000000020203F06
:10250000202000000070080808887000003028248F
:102510002221300000300888884830000018202030
:1025200020110E000000C02010F800000007042455
:10253000243F240000F8088888080800001921209A
:1025400020110E0000E0108888180000000F1120F4
:1025500020110E0000380808C83808000000003FAD
:10256000000000000070880808887000001C22210C
:1025700021221C0000E010080810E00000003122B9
:1025800022110F00000000C0C00000000000003059
:1025900030000000000000800000000000008060AB
:1025A000000000000000804020100800000102042C
:1025B0000810200040404040404040000404040413
:1025C00004040400000810204080000000201008CF
:1025D00004020100007048080808F0000000003004
:1025E00036010000C030C828E810E0000718272492
:1025F00023140B000000C038E0000000203C230240
:102600000227382008F8888888700000203F2020A2
:1026100020110E00C03008080808380007182020D4
:102620002010080008F808080810E000203F2020CB
:1026300020100F0008F88888E8081000203F2020AC
:102640002320180008F88888E8081000203F2000A0
:1026500003000000C03008080838000007182020D8
:10266000221E020008F808000008F808203F210197
:1026700001213F20000808F8080800000020203F42
:102680002020000000000808F8080800C0808080B2
:102690007F00000008F888C028180800203F2001AB
:1026A0002638200008F8080000000000203F202005
:1026B0002020300008F8F800F8F80800203F003F1C
:1026C000003F200008F830C00008F808203F200034
:1026D00007183F00E01008080810E0000F10202045
:1026E00020100F0008F808080808F000203F21011A
:1026F00001010000E01008080810E0000F18242471
:1027000038504F0008F8888888887000203F2000E3
:10271000030C302000708808080838000038202199
:1027200021221C00180808F8080818000000203FA3
:102730002000000008F808000008F808001F20200A
:1027400020201F000878880000C8380800000738DB
:102750000E010000F80800F80008F800033C07002C
:10276000073C0300081868808068180820302C0394
:10277000032C30200838C800C83808000000203F6B
:102780002000000010080808C8380800203826215A
:1027900020201800000000FE020202000000007F5E
:1027A00040404000000C30C000000000000000016C
:1027B0000638C00000020202FE0000000040404057
:1027C0007F0000000000040202020400000000007C
:1027D00000000000000000000000000080808080F9
:1027E00080808080000202040000000000000000E1
:1027F000000000000000808080800000001924227A
:1028000022223F2008F8008080000000003F1120B5
:1028100020110E000000008080800000000E1120BA
:1028200020201100000000808088F800000E112098
:1028300020103F200000808080800000001F2222A6
:1028400022221300008080F0888888180020203F12
:10285000202000000000808080808000006B949425
:102860009493600008F8008080800000203F2100E1
:1028700000203F2000809898000000000020203FAA
:1028800020200000000000809898000000C0808098
:10289000807F000008F8000080808000203F240234
:1028A0002D302000000808F8000000000020203F24
:1028B000202000008080808080808000203F2000D9
:1028C0003F20003F8080008080800000203F21006A
:1028D00000203F200000808080800000001F20201A
:1028E00020201F00808000808000000080FFA12049
:1028F00020110E000000008080808000000E11205A
:1029000020A0FF80808080008080800020203F21E8
:10291000200001000000808080808000003324249B
:1029200024241900008080E0808000000000001F47
:10293000202000008080000000808000001F2020F8
:1029400020103F20808080000080808000010E30B9
:102950000806010080800080008080800F300C031A
:102960000C300F0000808000808080000020312E1D
:102970000E312000808080000080808080818E70F9
:102980001806010000808080808080000021302CAB
:102990002221300000000000807C020200000000C4
:1029A000003F404000000000FF0000000000000069
:1029B000FF0000000002027C800000000040403F59
:1029C00000000000000601010202040400000000F3
:1029D00000000000000000000000000001020304ED
:1029E0000607080900000000010203040C2A000881
:1029F000000000201400000028010008202A000820
:102A000014000020440700004401000800000000FA
:102A10000100000010000000000000000024F4008D
:04000005080000ED02
:00000001FF
